{
  "abi": [
    {
      "inputs": [
        {
          "internalType": "uint256",
          "name": "initVal",
          "type": "uint256"
        }
      ],
      "stateMutability": "nonpayable",
      "type": "constructor"
    },
    {
      "anonymous": false,
      "inputs": [
        {
          "indexed": false,
          "internalType": "address",
          "name": "_to",
          "type": "address"
        },
        {
          "indexed": false,
          "internalType": "uint256",
          "name": "_amount",
          "type": "uint256"
        }
      ],
      "name": "stored",
      "type": "event"
    },
    {
      "inputs": [],
      "name": "get",
      "outputs": [
        {
          "internalType": "uint256",
          "name": "retVal",
          "type": "uint256"
        }
      ],
      "stateMutability": "view",
      "type": "function"
    },
    {
      "inputs": [],
      "name": "getSecond",
      "outputs": [
        {
          "internalType": "uint256",
          "name": "retVal",
          "type": "uint256"
        }
      ],
      "stateMutability": "view",
      "type": "function"
    },
    {
      "inputs": [],
      "name": "secondData",
      "outputs": [
        {
          "internalType": "uint256",
          "name": "",
          "type": "uint256"
        }
      ],
      "stateMutability": "view",
      "type": "function"
    },
    {
      "inputs": [
        {
          "internalType": "uint256",
          "name": "x",
          "type": "uint256"
        }
      ],
      "name": "set",
      "outputs": [],
      "stateMutability": "nonpayable",
      "type": "function"
    },
    {
      "inputs": [
        {
          "internalType": "uint256",
          "name": "x",
          "type": "uint256"
        }
      ],
      "name": "setSecond",
      "outputs": [],
      "stateMutability": "nonpayable",
      "type": "function"
    },
    {
      "inputs": [],
      "name": "storedData",
      "outputs": [
        {
          "internalType": "uint256",
          "name": "",
          "type": "uint256"
        }
      ],
      "stateMutability": "view",
      "type": "function"
    }
  ],
  "devdoc": {
    "kind": "dev",
    "methods": {},
    "version": 1
  },
  "evm": {
    "assembly": "    /* \"DoubleStorage.sol\":25:600  contract DoubleStorage {... */\n  mstore(0x40, 0x80)\n    /* \"DoubleStorage.sol\":148:276  constructor(uint initVal) public {... */\n  callvalue\n  dup1\n  iszero\n  tag_1\n  jumpi\n  0x00\n  dup1\n  revert\ntag_1:\n  pop\n  mload(0x40)\n  sub(codesize, bytecodeSize)\n  dup1\n  bytecodeSize\n  dup4\n  codecopy\n  dup2\n  dup2\n  add\n  0x40\n  mstore\n  0x20\n  dup2\n  lt\n  iszero\n  tag_2\n  jumpi\n  0x00\n  dup1\n  revert\ntag_2:\n  dup2\n  add\n  swap1\n  dup1\n  dup1\n  mload\n  swap1\n  0x20\n  add\n  swap1\n  swap3\n  swap2\n  swap1\n  pop\n  pop\n  pop\n    /* \"DoubleStorage.sol\":192:219  stored(msg.sender, initVal) */\n  0xc9db20adedc6cf2b5d25252b101ab03e124902a73fcb12b753f3d1aaa2d8f9f5\n    /* \"DoubleStorage.sol\":199:209  msg.sender */\n  caller\n    /* \"DoubleStorage.sol\":211:218  initVal */\n  dup3\n    /* \"DoubleStorage.sol\":192:219  stored(msg.sender, initVal) */\n  mload(0x40)\n  dup1\n  dup4\n  0xffffffffffffffffffffffffffffffffffffffff\n  and\n  dup2\n  mstore\n  0x20\n  add\n  dup3\n  dup2\n  mstore\n  0x20\n  add\n  swap3\n  pop\n  pop\n  pop\n  mload(0x40)\n  dup1\n  swap2\n  sub\n  swap1\n  log1\n    /* \"DoubleStorage.sol\":238:245  initVal */\n  dup1\n    /* \"DoubleStorage.sol\":225:235  storedData */\n  0x00\n    /* \"DoubleStorage.sol\":225:245  storedData = initVal */\n  dup2\n  swap1\n  sstore\n  pop\n    /* \"DoubleStorage.sol\":264:271  initVal */\n  dup1\n    /* \"DoubleStorage.sol\":251:261  secondData */\n  0x01\n    /* \"DoubleStorage.sol\":251:271  secondData = initVal */\n  dup2\n  swap1\n  sstore\n  pop\n    /* \"DoubleStorage.sol\":148:276  constructor(uint initVal) public {... */\n  pop\n    /* \"DoubleStorage.sol\":25:600  contract DoubleStorage {... */\n  dataSize(sub_0)\n  dup1\n  dataOffset(sub_0)\n  0x00\n  codecopy\n  0x00\n  return\nstop\n\nsub_0: assembly {\n        /* \"DoubleStorage.sol\":25:600  contract DoubleStorage {... */\n      mstore(0x40, 0x80)\n      callvalue\n      dup1\n      iszero\n      tag_1\n      jumpi\n      0x00\n      dup1\n      revert\n    tag_1:\n      pop\n      jumpi(tag_2, lt(calldatasize, 0x04))\n      shr(0xe0, calldataload(0x00))\n      dup1\n      0x1b03316f\n      eq\n      tag_3\n      jumpi\n      dup1\n      0x21ca1f8a\n      eq\n      tag_4\n      jumpi\n      dup1\n      0x2a1afcd9\n      eq\n      tag_5\n      jumpi\n      dup1\n      0x60fe47b1\n      eq\n      tag_6\n      jumpi\n      dup1\n      0x6d4ce63c\n      eq\n      tag_7\n      jumpi\n      dup1\n      0xb698c129\n      eq\n      tag_8\n      jumpi\n    tag_2:\n      0x00\n      dup1\n      revert\n        /* \"DoubleStorage.sol\":514:597  function getSecond() view public returns (uint retVal) {... */\n    tag_3:\n      tag_9\n      tag_10\n      jump\t// in\n    tag_9:\n      mload(0x40)\n      dup1\n      dup3\n      dup2\n      mstore\n      0x20\n      add\n      swap2\n      pop\n      pop\n      mload(0x40)\n      dup1\n      swap2\n      sub\n      swap1\n      return\n        /* \"DoubleStorage.sol\":78:100  uint public secondData */\n    tag_4:\n      tag_11\n      tag_12\n      jump\t// in\n    tag_11:\n      mload(0x40)\n      dup1\n      dup3\n      dup2\n      mstore\n      0x20\n      add\n      swap2\n      pop\n      pop\n      mload(0x40)\n      dup1\n      swap2\n      sub\n      swap1\n      return\n        /* \"DoubleStorage.sol\":52:74  uint public storedData */\n    tag_5:\n      tag_13\n      tag_14\n      jump\t// in\n    tag_13:\n      mload(0x40)\n      dup1\n      dup3\n      dup2\n      mstore\n      0x20\n      add\n      swap2\n      pop\n      pop\n      mload(0x40)\n      dup1\n      swap2\n      sub\n      swap1\n      return\n        /* \"DoubleStorage.sol\":280:365  function set(uint x) public {... */\n    tag_6:\n      tag_15\n      0x04\n      dup1\n      calldatasize\n      sub\n      0x20\n      dup2\n      lt\n      iszero\n      tag_16\n      jumpi\n      0x00\n      dup1\n      revert\n    tag_16:\n      dup2\n      add\n      swap1\n      dup1\n      dup1\n      calldataload\n      swap1\n      0x20\n      add\n      swap1\n      swap3\n      swap2\n      swap1\n      pop\n      pop\n      pop\n      tag_17\n      jump\t// in\n    tag_15:\n      stop\n        /* \"DoubleStorage.sol\":433:510  function get() view public returns (uint retVal) {... */\n    tag_7:\n      tag_18\n      tag_19\n      jump\t// in\n    tag_18:\n      mload(0x40)\n      dup1\n      dup3\n      dup2\n      mstore\n      0x20\n      add\n      swap2\n      pop\n      pop\n      mload(0x40)\n      dup1\n      swap2\n      sub\n      swap1\n      return\n        /* \"DoubleStorage.sol\":369:429  function setSecond(uint x) public { ... */\n    tag_8:\n      tag_20\n      0x04\n      dup1\n      calldatasize\n      sub\n      0x20\n      dup2\n      lt\n      iszero\n      tag_21\n      jumpi\n      0x00\n      dup1\n      revert\n    tag_21:\n      dup2\n      add\n      swap1\n      dup1\n      dup1\n      calldataload\n      swap1\n      0x20\n      add\n      swap1\n      swap3\n      swap2\n      swap1\n      pop\n      pop\n      pop\n      tag_22\n      jump\t// in\n    tag_20:\n      stop\n        /* \"DoubleStorage.sol\":514:597  function getSecond() view public returns (uint retVal) {... */\n    tag_10:\n        /* \"DoubleStorage.sol\":556:567  uint retVal */\n      0x00\n        /* \"DoubleStorage.sol\":582:592  secondData */\n      sload(0x01)\n        /* \"DoubleStorage.sol\":575:592  return secondData */\n      swap1\n      pop\n        /* \"DoubleStorage.sol\":514:597  function getSecond() view public returns (uint retVal) {... */\n      swap1\n      jump\t// out\n        /* \"DoubleStorage.sol\":78:100  uint public secondData */\n    tag_12:\n      sload(0x01)\n      dup2\n      jump\t// out\n        /* \"DoubleStorage.sol\":52:74  uint public storedData */\n    tag_14:\n      sload(0x00)\n      dup2\n      jump\t// out\n        /* \"DoubleStorage.sol\":280:365  function set(uint x) public {... */\n    tag_17:\n        /* \"DoubleStorage.sol\":319:340  stored(msg.sender, x) */\n      0xc9db20adedc6cf2b5d25252b101ab03e124902a73fcb12b753f3d1aaa2d8f9f5\n        /* \"DoubleStorage.sol\":326:336  msg.sender */\n      caller\n        /* \"DoubleStorage.sol\":338:339  x */\n      dup3\n        /* \"DoubleStorage.sol\":319:340  stored(msg.sender, x) */\n      mload(0x40)\n      dup1\n      dup4\n      0xffffffffffffffffffffffffffffffffffffffff\n      and\n      dup2\n      mstore\n      0x20\n      add\n      dup3\n      dup2\n      mstore\n      0x20\n      add\n      swap3\n      pop\n      pop\n      pop\n      mload(0x40)\n      dup1\n      swap2\n      sub\n      swap1\n      log1\n        /* \"DoubleStorage.sol\":359:360  x */\n      dup1\n        /* \"DoubleStorage.sol\":346:356  storedData */\n      0x00\n        /* \"DoubleStorage.sol\":346:360  storedData = x */\n      dup2\n      swap1\n      sstore\n      pop\n        /* \"DoubleStorage.sol\":280:365  function set(uint x) public {... */\n      pop\n      jump\t// out\n        /* \"DoubleStorage.sol\":433:510  function get() view public returns (uint retVal) {... */\n    tag_19:\n        /* \"DoubleStorage.sol\":469:480  uint retVal */\n      0x00\n        /* \"DoubleStorage.sol\":495:505  storedData */\n      dup1\n      sload\n        /* \"DoubleStorage.sol\":488:505  return storedData */\n      swap1\n      pop\n        /* \"DoubleStorage.sol\":433:510  function get() view public returns (uint retVal) {... */\n      swap1\n      jump\t// out\n        /* \"DoubleStorage.sol\":369:429  function setSecond(uint x) public { ... */\n    tag_22:\n        /* \"DoubleStorage.sol\":423:424  x */\n      dup1\n        /* \"DoubleStorage.sol\":410:420  secondData */\n      0x01\n        /* \"DoubleStorage.sol\":410:424  secondData = x */\n      dup2\n      swap1\n      sstore\n      pop\n        /* \"DoubleStorage.sol\":369:429  function setSecond(uint x) public { ... */\n      pop\n      jump\t// out\n\n    auxdata: 0xa264697066735822122049760ecb6620a29f2ceae782f6d0dbcb7a2bfe245ca3496015ac20bc91ce407d64736f6c63430007060033\n}\n",
    "bytecode": {
      "linkReferences": {},
      "object": "608060405234801561001057600080fd5b506040516102b03803806102b08339818101604052602081101561003357600080fd5b81019080805190602001909291905050507fc9db20adedc6cf2b5d25252b101ab03e124902a73fcb12b753f3d1aaa2d8f9f53382604051808373ffffffffffffffffffffffffffffffffffffffff1681526020018281526020019250505060405180910390a18060008190555080600181905550506101f9806100b76000396000f3fe608060405234801561001057600080fd5b50600436106100625760003560e01c80631b03316f1461006757806321ca1f8a146100855780632a1afcd9146100a357806360fe47b1146100c15780636d4ce63c146100ef578063b698c1291461010d575b600080fd5b61006f61013b565b6040518082815260200191505060405180910390f35b61008d610145565b6040518082815260200191505060405180910390f35b6100ab61014b565b6040518082815260200191505060405180910390f35b6100ed600480360360208110156100d757600080fd5b8101908080359060200190929190505050610151565b005b6100f76101b0565b6040518082815260200191505060405180910390f35b6101396004803603602081101561012357600080fd5b81019080803590602001909291905050506101b9565b005b6000600154905090565b60015481565b60005481565b7fc9db20adedc6cf2b5d25252b101ab03e124902a73fcb12b753f3d1aaa2d8f9f53382604051808373ffffffffffffffffffffffffffffffffffffffff1681526020018281526020019250505060405180910390a18060008190555050565b60008054905090565b806001819055505056fea264697066735822122049760ecb6620a29f2ceae782f6d0dbcb7a2bfe245ca3496015ac20bc91ce407d64736f6c63430007060033",
      "opcodes": "PUSH1 0x80 PUSH1 0x40 MSTORE CALLVALUE DUP1 ISZERO PUSH2 0x10 JUMPI PUSH1 0x0 DUP1 REVERT JUMPDEST POP PUSH1 0x40 MLOAD PUSH2 0x2B0 CODESIZE SUB DUP1 PUSH2 0x2B0 DUP4 CODECOPY DUP2 DUP2 ADD PUSH1 0x40 MSTORE PUSH1 0x20 DUP2 LT ISZERO PUSH2 0x33 JUMPI PUSH1 0x0 DUP1 REVERT JUMPDEST DUP2 ADD SWAP1 DUP1 DUP1 MLOAD SWAP1 PUSH1 0x20 ADD SWAP1 SWAP3 SWAP2 SWAP1 POP POP POP PUSH32 0xC9DB20ADEDC6CF2B5D25252B101AB03E124902A73FCB12B753F3D1AAA2D8F9F5 CALLER DUP3 PUSH1 0x40 MLOAD DUP1 DUP4 PUSH20 0xFFFFFFFFFFFFFFFFFFFFFFFFFFFFFFFFFFFFFFFF AND DUP2 MSTORE PUSH1 0x20 ADD DUP3 DUP2 MSTORE PUSH1 0x20 ADD SWAP3 POP POP POP PUSH1 0x40 MLOAD DUP1 SWAP2 SUB SWAP1 LOG1 DUP1 PUSH1 0x0 DUP2 SWAP1 SSTORE POP DUP1 PUSH1 0x1 DUP2 SWAP1 SSTORE POP POP PUSH2 0x1F9 DUP1 PUSH2 0xB7 PUSH1 0x0 CODECOPY PUSH1 0x0 RETURN INVALID PUSH1 0x80 PUSH1 0x40 MSTORE CALLVALUE DUP1 ISZERO PUSH2 0x10 JUMPI PUSH1 0x0 DUP1 REVERT JUMPDEST POP PUSH1 0x4 CALLDATASIZE LT PUSH2 0x62 JUMPI PUSH1 0x0 CALLDATALOAD PUSH1 0xE0 SHR DUP1 PUSH4 0x1B03316F EQ PUSH2 0x67 JUMPI DUP1 PUSH4 0x21CA1F8A EQ PUSH2 0x85 JUMPI DUP1 PUSH4 0x2A1AFCD9 EQ PUSH2 0xA3 JUMPI DUP1 PUSH4 0x60FE47B1 EQ PUSH2 0xC1 JUMPI DUP1 PUSH4 0x6D4CE63C EQ PUSH2 0xEF JUMPI DUP1 PUSH4 0xB698C129 EQ PUSH2 0x10D JUMPI JUMPDEST PUSH1 0x0 DUP1 REVERT JUMPDEST PUSH2 0x6F PUSH2 0x13B JUMP JUMPDEST PUSH1 0x40 MLOAD DUP1 DUP3 DUP2 MSTORE PUSH1 0x20 ADD SWAP2 POP POP PUSH1 0x40 MLOAD DUP1 SWAP2 SUB SWAP1 RETURN JUMPDEST PUSH2 0x8D PUSH2 0x145 JUMP JUMPDEST PUSH1 0x40 MLOAD DUP1 DUP3 DUP2 MSTORE PUSH1 0x20 ADD SWAP2 POP POP PUSH1 0x40 MLOAD DUP1 SWAP2 SUB SWAP1 RETURN JUMPDEST PUSH2 0xAB PUSH2 0x14B JUMP JUMPDEST PUSH1 0x40 MLOAD DUP1 DUP3 DUP2 MSTORE PUSH1 0x20 ADD SWAP2 POP POP PUSH1 0x40 MLOAD DUP1 SWAP2 SUB SWAP1 RETURN JUMPDEST PUSH2 0xED PUSH1 0x4 DUP1 CALLDATASIZE SUB PUSH1 0x20 DUP2 LT ISZERO PUSH2 0xD7 JUMPI PUSH1 0x0 DUP1 REVERT JUMPDEST DUP2 ADD SWAP1 DUP1 DUP1 CALLDATALOAD SWAP1 PUSH1 0x20 ADD SWAP1 SWAP3 SWAP2 SWAP1 POP POP POP PUSH2 0x151 JUMP JUMPDEST STOP JUMPDEST PUSH2 0xF7 PUSH2 0x1B0 JUMP JUMPDEST PUSH1 0x40 MLOAD DUP1 DUP3 DUP2 MSTORE PUSH1 0x20 ADD SWAP2 POP POP PUSH1 0x40 MLOAD DUP1 SWAP2 SUB SWAP1 RETURN JUMPDEST PUSH2 0x139 PUSH1 0x4 DUP1 CALLDATASIZE SUB PUSH1 0x20 DUP2 LT ISZERO PUSH2 0x123 JUMPI PUSH1 0x0 DUP1 REVERT JUMPDEST DUP2 ADD SWAP1 DUP1 DUP1 CALLDATALOAD SWAP1 PUSH1 0x20 ADD SWAP1 SWAP3 SWAP2 SWAP1 POP POP POP PUSH2 0x1B9 JUMP JUMPDEST STOP JUMPDEST PUSH1 0x0 PUSH1 0x1 SLOAD SWAP1 POP SWAP1 JUMP JUMPDEST PUSH1 0x1 SLOAD DUP2 JUMP JUMPDEST PUSH1 0x0 SLOAD DUP2 JUMP JUMPDEST PUSH32 0xC9DB20ADEDC6CF2B5D25252B101AB03E124902A73FCB12B753F3D1AAA2D8F9F5 CALLER DUP3 PUSH1 0x40 MLOAD DUP1 DUP4 PUSH20 0xFFFFFFFFFFFFFFFFFFFFFFFFFFFFFFFFFFFFFFFF AND DUP2 MSTORE PUSH1 0x20 ADD DUP3 DUP2 MSTORE PUSH1 0x20 ADD SWAP3 POP POP POP PUSH1 0x40 MLOAD DUP1 SWAP2 SUB SWAP1 LOG1 DUP1 PUSH1 0x0 DUP2 SWAP1 SSTORE POP POP JUMP JUMPDEST PUSH1 0x0 DUP1 SLOAD SWAP1 POP SWAP1 JUMP JUMPDEST DUP1 PUSH1 0x1 DUP2 SWAP1 SSTORE POP POP JUMP INVALID LOG2 PUSH5 0x6970667358 0x22 SLT KECCAK256 0x49 PUSH23 0xECB6620A29F2CEAE782F6D0DBCB7A2BFE245CA3496015 0xAC KECCAK256 0xBC SWAP2 0xCE BLOCKHASH PUSH30 0x64736F6C6343000706003300000000000000000000000000000000000000 "
    },
    "gasEstimates": {
      "creation": {
        "codeDepositCost": "101000",
        "executionCost": "infinite",
        "totalCost": "infinite"
      },
      "external": {
        "get()": "1079",
        "getSecond()": "991",
        "secondData()": "1005",
        "set(uint256)": "21637",
        "setSecond(uint256)": "20330",
        "storedData()": "1027"
      }
    },
    "methodIdentifiers": {
      "get()": "6d4ce63c",
      "getSecond()": "1b03316f",
      "secondData()": "21ca1f8a",
      "set(uint256)": "60fe47b1",
      "setSecond(uint256)": "b698c129",
      "storedData()": "2a1afcd9"
    }
  },
  "storageLayout": {
    "storage": [
      {
        "astId": 3,
        "contract": "DoubleStorage.sol:DoubleStorage",
        "label": "storedData",
        "offset": 0,
        "slot": "0",
        "type": "t_uint256"
      },
      {
        "astId": 5,
        "contract": "DoubleStorage.sol:DoubleStorage",
        "label": "secondData",
        "offset": 0,
        "slot": "1",
        "type": "t_uint256"
      }
    ],
    "types": {
      "t_uint256": {
        "encoding": "inplace",
        "label": "uint256",
        "numberOfBytes": "32"
      }
    }
  },
  "userdoc": {
    "kind": "user",
    "methods": {},
    "version": 1
  }
}